:100000000C9462000C948A000C948A000C948A0070
:100010000C948A000C948A000C948A000C948A0038
:100020000C948A000C948A000C948A000C94590653
:100030000C948A000C948A000C948A000C948A0018
:100040000C940F060C948A000C94DD050C94B705F3
:100050000C948A000C948A000C948A000C948A00F8
:100060000C948A000C948A000000000023002600F3
:10007000290000000000240027002A0000000000E2
:10008000250028002B0004040404040404040202D4
:100090000202020203030303030301020408102007
:1000A0004080010204081020010204081020000012
:1000B0000008000201000003040700000000000027
:1000C00000005A0711241FBECFEFD8E0DEBFCDBF1E
:1000D00011E0A0E0B1E0EAE1F7E102C005900D9285
:1000E000A635B107D9F722E0A6E5B1E001C01D921F
:1000F000A534B207E1F710E0C2E6D0E004C02197D2
:10010000FE010E94850BC136D107C9F70E94E207A4
:100110000C948B0B0C9400008F929F92AF92BF9225
:10012000FF920F931F93CF93DF938F3F980709F4AC
:1001300061C0853B910511F484EB90E0F0904202A0
:100140002BE02F1508F44CC02091440208E512E082
:10015000021B110927FD1395000F111F000F111F1E
:1001600020914302C8E8D0E0C21BD10927FDD395F6
:10017000CC0FDD1FCC0FDD1F4E010D2E000CAA0889
:10018000BB089801012E000C440B550B28193909A6
:100190004A095B09DC010E94760924EB30E040E06B
:1001A00050E00E944C09820E931EA41EB51E8C16B0
:1001B0009D062CF0E801801691060CF4E4012297CC
:1001C000CC0FDD1F2FB7F8948F2D90E0FC01EE0FC0
:1001D000FF1FE80FF91FEB5FFD4FD283C1832FBFD5
:1001E000DF91CF911F910F91FF90BF90AF909F90A3
:1001F0008F90089590E080E0A1CFAF92BF92CF9210
:10020000DF92EF92FF920F931F93CF93DF936C01D6
:100210007B018B01040F151FEB015E01AE18BF08B7
:10022000C017D10759F06991D601ED91FC91019069
:10023000F081E02DC6010995892B79F7C501DF9181
:10024000CF911F910F91FF90EF90DF90CF90BF90D3
:10025000AF900895FC01538D448D252F30E0842FFD
:1002600090E0821B930B541710F0CF9608950197DE
:100270000895FC01918D828D981761F0A28DAE0FCB
:10028000BF2FB11D5D968C91928D9F5F9F73928F52
:1002900090E008958FEF9FEF0895FC01918D828D7E
:1002A000981731F0828DE80FF11D858D90E008954B
:1002B0008FEF9FEF0895FC01918D228D892F90E0A3
:1002C000805C9F4F821B91098F739927089588E660
:1002D00091E00E945B0121E0892B09F420E0822F4C
:1002E000089580E090E0892B29F00E946701811138
:1002F0000C9400000895FC01A48DA80FB92FB11D26
:10030000A35ABF4F2C91848D90E001968F7399274B
:10031000848FA689B7892C93A089B1898C91837029
:1003200080648C93938D848D981306C00288F38922
:10033000E02D80818F7D80830895EF92FF920F934F
:100340001F93CF93DF93EC0181E0888F9B8D8C8D81
:1003500098131AC0E889F989808185FF15C09FB775
:10036000F894EE89FF896083E889F9898081837038
:10037000806480839FBF81E090E0DF91CF911F91E7
:100380000F91FF90EF900895F62E0B8D10E00F5F08
:100390001F4F0F731127E02E8C8D8E110CC00FB6DE
:1003A00007FCFACFE889F989808185FFF5CFCE0176
:1003B0000E947B01F1CFEB8DEC0FFD2FF11DE35A75
:1003C000FF4FF0829FB7F8940B8FEA89FB898081F9
:1003D0008062CFCFCF93DF93EC01888D8823B9F073
:1003E000AA89BB89E889F9898C9185FD03C0808140
:1003F00086FD0DC00FB607FCF7CF8C9185FFF2CFBD
:10040000808185FFEDCFCE010E947B01E9CFDF9196
:10041000CF91089590E0FC01E255FF4F2491FC013B
:10042000E656FF4F3491FC01EA57FF4FE491EE236B
:10043000C9F0222339F0233001F1A8F4213019F159
:10044000223029F1F0E0EE0FFF1FE458FF4FA59195
:10045000B4918FB7F894EC91611126C030953E238A
:100460003C938FBF08952730A9F02830C9F024307D
:1004700049F7809180008F7D03C0809180008F7745
:1004800080938000DFCF84B58F7784BDDBCF84B5C8
:100490008F7DFBCF8091B0008F778093B000D2CF5B
:1004A0008091B0008F7DF9CF3E2BDACFCF93DF93D1
:1004B00090E0FC01E656FF4F24918A579F4FFC01C4
:1004C00084918823D1F090E0880F991FFC01EE58A9
:1004D000FF4FA591B491FC01E458FF4FC591D49111
:1004E00061110EC09FB7F8948C91E22FE0958E2396
:1004F0008C932881E223E8839FBFDF91CF910895F9
:100500008FB7F894EC91E22BEC938FBFF6CF3FB707
:10051000F89480915C0190915D01A0915E01B09191
:100520005F0126B5A89B05C02F3F19F00196A11DBC
:10053000B11D3FBFBA2FA92F982F8827BC01CD012D
:10054000620F711D811D911D42E0660F771F881F8C
:10055000991F4A95D1F708958F929F92AF92BF92BB
:10056000CF92DF92EF92FF924B015C010E948702D3
:100570006B017C010E9487026C197D098E099F091D
:10058000683E734081059105A8F321E0821A910825
:10059000A108B10888EEC80E83E0D81EE11CF11C4A
:1005A00081149104A104B10429F7FF90EF90DF902A
:1005B000CF90BF90AF909F908F900895089590E056
:1005C00080E00895FC0101900020E9F73197AF0128
:1005D000481B590BBC018AE292E00C94FD008F92FB
:1005E0009F92AF92BF920F931F93CF93DF93CDB79C
:1005F000DEB7A1970FB6F894DEBF0FBECDBF19A22C
:10060000423008F44AE08E010F5D1F4F842E912C7A
:10061000B12CA12CA50194010E947E09E62FB901FD
:10062000CA01EA30F4F4E05DD801EE938D01232B8A
:10063000242B252B79F790E080E0109719F0CD015D
:100640000E94E202A1960FB6F894DEBF0FBECDBFA6
:10065000DF91CF911F910F91BF90AF909F908F909E
:100660000895E95CE1CFCF93DF93EC0160E08E81E8
:100670000E940A0261E08E810E940A0260E08E817F
:100680000E940A028BE891E00197F1F7DF91CF9188
:100690000895CF92DF92EF92FF920F931F93CF9323
:1006A000DF936C017C0187E0E80EF11CD0E0C0E034
:1006B000062F10E0B8010C2E02C0759567950A94BC
:1006C000E2F76170F70181917F010E940A02219691
:1006D000C430D10579F7C601DF91CF911F910F91F9
:1006E000FF90EF90DF90CF900C943303CF92DF9286
:1006F000EF92FF920F931F93CF93DF93EC01F62EAF
:10070000642F8C810E940A028D818F3F19F060E076
:100710000E940A020F2D10E08F8584FF25C06E0114
:1007200087E0C80ED11CF12CE12CB8010E2C02C0C0
:10073000759567950A94E2F76170F60181916F01F2
:100740000E940A02FFEFEF1AFF0A88E0E816F104A0
:1007500061F7CE01DF91CF911F910F91FF90EF9044
:10076000DF90CF900C943303B80184E075956795C2
:100770008A95E1F7CE010E9449036F2DCE01DF91EA
:10078000CF911F910F91FF90EF90DF90CF900C943D
:10079000490340E0682F8AE292E00C94760381E0FE
:1007A0000E94C9038BE39FE10197F1F70895CF936E
:1007B000DF93823029F49091390298609093390246
:1007C00080933D0210923E0280E480933F0280E1DC
:1007D0008093400280E58093410261E080912E0287
:1007E0000E94560280912F028F3F19F061E00E9413
:1007F000560261E0809130020E945602CAE2D2E0C5
:100800009E012A5232408091390284FD0BC084E05F
:1008100090E021962817390744F461E08E810E9408
:100820005602EECF88E090E0F4CF8BE39DE0019795
:10083000F1F760E080912E020E940A0260E0809150
:1008400030020E940A0280912F028F3F19F060E06F
:100850000E940A028091390284FD34C063E08AE27A
:1008600092E00E944903CBE4D6E4CE010197F1F770
:1008700063E08AE292E00E9449032197F1F763E086
:100880008AE292E00E94490383E592E00197F1F742
:1008900062E08AE292E00E9449038091390280621C
:1008A0000E94C90384E080933A028CE00E94C9034D
:1008B0000E94CF0382E080933B0286E0DF91CF91DC
:1008C0000C94C90380620E94C9038BE496E40197EB
:1008D000F1F78091390280620E94C90383E592E0BA
:1008E0000197F1F78091390280620E94C903D5CF48
:1008F00041E00E94760381E090E008958F929F92FC
:10090000AF92BF92CF92DF92EF92FF920E94CF03FD
:10091000E1E080913D028111E0E0E195F0E0E65DEB
:10092000FD4F848980680E94C9038EE191E00E9496
:10093000E202E0913D02E23008F042C0E150F0E016
:10094000E65DFD4F848980680E94C90380E391E0E1
:100950000E94E202C0906001D0906101E0906201CB
:10096000F0906301A7019601C701B6010E94740BC4
:10097000882341F185E391E00E94E20281E491E065
:100980000E94E20261E087E00E940A0261E084E0E6
:100990000E940A0268EB7BE080E090E00E94AC02DB
:1009A00060E087E00E940A0260E084E0FF90EF9040
:1009B000DF90CF90BF90AF909F908F900C940A02E1
:1009C000E1E0BDCF46015701E894B7F82FEF3FEFC4
:1009D0004FE75FE7C501B4010E94740B81110DC0A0
:1009E0002FEF3FEF4FE75FE7C501B4010E941C0AFC
:1009F00018161CF489E391E0BFCF2FEF3FEF4FE7CC
:100A00005FE4C701B6010E94020B18161CF48DE3C7
:100A100091E0B2CF2FEF3FEF4FE75FECC701B60198
:100A20000E941C0A87FDF3CF20E030E0A901C70136
:100A3000B6010E941C0A87FF0AC041E06DE28AE20B
:100A400092E00E947603F7FAF094F7F8F0942AE027
:100A500037ED43EA5BE3C701B6010E94B0094B01E1
:100A60005C010E94210A6B017C010E94500A9B01DB
:100A7000AC01C501B4010E94AF094B015C014AE021
:100A8000C701B6010E94EF0241E06EE28AE292E005
:100A90000E94760320E030E040E251E4C501B40159
:100AA0000E94070B4B015C010E94210A6B01F12C93
:100AB000E12C4AE0C701B6010E94EF02C701B6016E
:100AC0000E94500A9B01AC01C501B4010E94AF090C
:100AD00020E030E040E251E40E94070B0E94210A2E
:100AE00090E080E04AE00E94EF0248CF0F931F930E
:100AF00060E083E00E940A0283E090E00197F1F752
:100B000061E083E00E940A0283E290E00197F1F73E
:100B100060E083E00E940A02ECE9F0E06491E8E81A
:100B2000F0E0E491F0E0EE0FFF1FE859FF4F8591F0
:100B3000949100E412E42FE030E0462F0E94150764
:100B4000611571058105910529F06F5F7F4F8F4F0A
:100B50009F4F9F700E94500A6093640170936501DB
:100B600080936601909367011F910F9108951F92E2
:100B70000F920FB60F9211242F933F934F935F93D1
:100B80006F937F938F939F93AF93BF93EF93FF9355
:100B900088E691E00E947B01FF91EF91BF91AF91B8
:100BA0009F918F917F916F915F914F913F912F9185
:100BB0000F900FBE0F901F9018951F920F920FB6B7
:100BC0000F9211242F938F939F93EF93FF93E091B4
:100BD0007801F09179018081E0917E01F0917F01AF
:100BE00082FD1BC09081809181018F5F8F73209166
:100BF0008201821741F0E0918101F0E0E859FE4F57
:100C0000958F80938101FF91EF919F918F912F910B
:100C10000F900FBE0F901F9018958081F4CF1F92F8
:100C20000F920FB60F9211242F933F938F939F93A0
:100C3000AF93BF938091580190915901A0915A01AF
:100C4000B0915B013091570123E0230F2D3758F508
:100C50000196A11DB11D20935701809358019093D7
:100C60005901A0935A01B0935B0180915C0190916E
:100C70005D01A0915E01B0915F010196A11DB11DC2
:100C800080935C0190935D01A0935E01B0935F013E
:100C9000BF91AF919F918F913F912F910F900FBE78
:100CA0000F901F90189526E8230F0296A11DB11DE5
:100CB000D2CF1F920F920FB60F9211242F933F9312
:100CC0004F935F936F937F938F939F93AF93BF9354
:100CD000CF93DF93EF93FF9380915601C091290248
:100CE000D0E087FF24C0109285001092840080918C
:100CF00056018F5F8093560180915601082E000C9B
:100D0000990B8C179D0724F4809156018C30C4F107
:100D10008091840090918500049680349C4908F469
:100D20007AC08091840090918500049676C080916D
:100D30005601082E000C990B8C179D07C4F6E09104
:100D400056018E2FEE0F990BFC01EE0FFF1FE80FDF
:100D5000F91FEB5FFD4F808186FFC9CFE0915601FF
:100D60008E2FEE0F990BFC01EE0FFF1FE80FF91FFE
:100D7000EB5FFD4F808160E08F730E940A02B7CF66
:100D80002091840030918500E09156018E2FEE0F66
:100D9000990BFC01EE0FFF1FE80FF91FEB5FFD4FF2
:100DA00081819281820F931F9093890080938800A4
:100DB000E09156018E2FEE0F990BFC01EE0FFF1FF5
:100DC000E80FF91FEB5FFD4F808186FF11C0E091B6
:100DD00056018E2FEE0F990BFC01EE0FFF1FE80F4F
:100DE000F91FEB5FFD4F808161E08F730E940A0263
:100DF000FF91EF91DF91CF91BF91AF919F918F9133
:100E00007F916F915F914F913F912F910F900FBE06
:100E10000F901F90189580E49CE99093890080932F
:100E200088008FEF80935601E3CFCF92DF92EF924D
:100E3000FF920F931F93E82FF92F05C0015011095E
:100E40002109310961F1908196239417B9F305C006
:100E5000015011092109310911F190819623941350
:100E6000F7CFC12CD12CE12CF12C0AC08FEFC81A7E
:100E7000D80AE80AF80A0C151D052E053F0579F079
:100E800080818623841791F36C2D7D2D8E2D9F2DCF
:100E90001F910F91FF90EF90DF90CF90089560E049
:100EA00070E080E090E01F910F91FF90EF90DF9055
:100EB000CF90089510926B0110926A0188EE93E032
:100EC000A0E0B0E080936C0190936D01A0936E015F
:100ED000B0936F0184E091E0909369018093680181
:100EE00085EC90E0909375018093740184EC90E020
:100EF000909377018093760180EC90E09093790154
:100F00008093780181EC90E090937B0180937A014B
:100F100082EC90E090937D0180937C0186EC90E0E0
:100F200090937F0180937E01109281011092820143
:100F30001092830110928401809129028C30F0F587
:100F400091E0980F909329028093420290E0FC0177
:100F5000EE0FFF1FE80FF91FEB5FFD4F88EB9BE0E3
:100F60009283818310922D0210922C0286E191E0EF
:100F700090932B0280932A028DE080932E028FEFB4
:100F800080932F028CE0809330028BE080933102BB
:100F90008AE08093320289E08093330288E0809374
:100FA00034021092350210923602109237021092DB
:100FB00038021092390281E00C94D7038FEF8093AE
:100FC0004202D0CF789484B5826084BD84B58160BC
:100FD00084BD85B5826085BD85B5816085BD809104
:100FE0006E00816080936E0010928100809181007C
:100FF0008260809381008091810081608093810074
:10100000809180008160809380008091B100846035
:101010008093B1008091B00081608093B000809196
:101020007A00846080937A0080917A008260809355
:101030007A0080917A00816080937A0080917A00B2
:10104000806880937A001092C100809142028C30B7
:1010500008F051C061E086E00E9456028091420291
:10106000282F30E0F901EE0FFF1FE20FF31FEB5FB7
:10107000FD4F9081907C9660908310924302109275
:1010800044022CE0622F0E94790B829FB001112450
:1010900030E020E0AB01420F531FFA01EE0FFF1FBB
:1010A000E40FF51FEB5FFD4F908196FD16C02F5F9B
:1010B0003F4F2C30310571F781110FC01092800025
:1010C00082E0809381001092850010928400B19A92
:1010D00080916F00826080936F00E09142028E2FBA
:1010E00090E0FC01EE0FFF1FE80FF91FEB5FFD4FD3
:1010F00080818064808361E083E00E94560260E02A
:1011000082E00E94560261E084E00E94560261E0A3
:1011100087E00E945602E0917801F091790182E027
:101120008083E0917401F09175011082E091760165
:10113000F09177018FEC808310928001E0917C0127
:10114000F0917D0186E08083E0917A01F0917B014E
:10115000808180618083E0917A01F0917B018081C0
:1011600088608083E0917A01F0917B0180818068C2
:101170008083E0917A01F0917B0180818F7D808373
:1011800082E00E94D70300E010E0D0E0C0E0CE0192
:101190000E948C000E94760528E23EE74CE05DE369
:1011A0006091640170916501809166019091670181
:1011B0000E94070B20E030E040E05FE30E94070B55
:1011C0006093600170936101809362019093630169
:1011D00020E030E048E452E40E941C0A18160CF4A7
:1011E0004DC00E947E0464E670E080E090E00E94C2
:1011F000AC022196C53BD10551F6C4EBD0E0CE013F
:101200000E948C000E94760528E23EE74CE05DE3F8
:101210006091640170916501809166019091670110
:101220000E94070B20E030E040E05FE30E94070BE4
:1012300060936001709361018093620190936301F8
:1012400020E030E048E452E40E941C0A1816ECF05A
:101250000E947E0464E670E080E090E00E94AC02B0
:10126000219768F60115110509F48FCF0E946701D7
:10127000882309F48ACF0E94000087CF0E94CF0301
:1012800085E491E00E94E202AECF0E94CF0385E4A4
:1012900091E00E94E202DECF052E97FB1EF400943F
:1012A0000E94630957FD07D00E947E0907FC03D006
:1012B0004EF40C94630950954095309521953F4F1D
:1012C0004F4F5F4F089590958095709561957F4F32
:1012D0008F4F9F4F08950E94A009A59F900DB49F26
:1012E000900DA49F800D911D11240895B7FF0C94BB
:1012F0006B090E946B09821B930B0895A1E21A2EC1
:10130000AA1BBB1BFD010DC0AA1FBB1FEE1FFF1FA9
:10131000A217B307E407F50720F0A21BB30BE40BF9
:10132000F50B661F771F881F991F1A9469F7609540
:101330007095809590959B01AC01BD01CF010895FA
:10134000A29FB001B39FC001A39F700D811D112406
:10135000911DB29F700D811D1124911D089550584B
:10136000BB27AA270E94C7090C94C80A0E94BA0A80
:1013700038F00E94C10A20F039F49F3F19F426F496
:101380000C94B70A0EF4E095E7FB0C94B10AE92F30
:101390000E94D90A58F3BA176207730784079507A2
:1013A00020F079F4A6F50C94FB0A0EF4E0950B2ED0
:1013B000BA2FA02D0B01B90190010C01CA01A001A7
:1013C0001124FF27591B99F0593F50F4503E68F102
:1013D0001A16F040A22F232F342F4427585FF3CF43
:1013E000469537952795A795F0405395C9F77EF414
:1013F0001F16BA0B620B730B840BBAF09150A1F05D
:10140000FF0FBB1F661F771F881FC2F70EC0BA0FE2
:10141000621F731F841F48F4879577956795B7956A
:10142000F7959E3F08F0B0CF9395880F08F0992765
:10143000EE0F9795879508950E948D0A08F481E034
:1014400008950E94E10A88F09F5798F0B92F9927D4
:10145000B751B0F0E1F0660F771F881F991F1AF09F
:10146000BA95C9F714C0B13091F00E94FB0AB1E0FF
:1014700008950C94FB0A672F782F8827B85F39F0FE
:10148000B93FCCF3869577956795B395D9F73EF438
:1014900090958095709561957F4F8F4F9F4F0895E0
:1014A000E89409C097FB3EF49095809570956195FE
:1014B0007F4F8F4F9F4F9923A9F0F92F96E9BB27B4
:1014C0009395F695879577956795B795F111F8CF30
:1014D000FAF4BB0F11F460FF1BC06F5F7F4F8F4F9B
:1014E0009F4F16C0882311F096E911C0772321F091
:1014F0009EE8872F762F05C0662371F096E8862F29
:1015000070E060E02AF09A95660F771F881FDAF77F
:10151000880F9695879597F90895990F0008550FAC
:10152000AA0BE0E8FEEF16161706E807F907C0F069
:1015300012161306E407F50798F0621B730B840B71
:10154000950B39F40A2661F0232B242B252B21F44B
:1015500008950A2609F4A140A6958FEF811D811DEB
:10156000089597F99F6780E870E060E008959FEF25
:1015700080EC089500240A9416161706180609062A
:10158000089500240A9412161306140605060895F9
:10159000092E0394000C11F4882352F0BB0F40F481
:1015A000BF2B11F460FF04C06F5F7F4F8F4F9F4FC1
:1015B000089557FD9058440F551F59F05F3F71F043
:1015C0004795880F97FB991F61F09F3F79F08795AA
:1015D0000895121613061406551FF2CF4695F1DF33
:1015E00008C0161617061806991FF1CF86957105C3
:1015F000610508940895E894BB2766277727CB01F7
:1016000097F908950E948D0A08F48FEF08950E94BB
:101610001A0B0C94C80A0E94BA0A38F00E94C10A38
:1016200020F0952311F00C94B10A0C94B70A112400
:101630000C94FC0A0E94D90A70F3959FC1F3950F90
:1016400050E0551F629FF001729FBB27F00DB11D46
:10165000639FAA27F00DB11DAA1F649F6627B00DD6
:10166000A11D661F829F2227B00DA11D621F739FBF
:10167000B00DA11D621F839FA00D611D221F749FCD
:101680003327A00D611D231F849F600D211D822F14
:10169000762F6A2F11249F5750409AF0F1F088233B
:1016A0004AF0EE0FFF1FBB1F661F771F881F915068
:1016B0005040A9F79E3F510580F00C94B10A0C945C
:1016C000FC0A5F3FE4F3983ED4F3869577956795DF
:1016D000B795F795E7959F5FC1F7FE2B880F911D92
:1016E0009695879597F908950E948D0A880B990B16
:1016F0000895991B79E004C0991F961708F0961B6E
:10170000881F7A95C9F780950895EE0FFF1F059001
:0A171000F491E02D0994F894FFCF46
:10171A00000000009D01FD002A01EA015B01390178
:10172A004D01000000007804FD00DF02DE02506572
:10173A0072736F6E2F4F626A656374206174200042
:10174A0020202020006E616E00696E66006F76664A
:10175A000020636D00446574656374696E672E2E9C
:06176A002E2E2E2E2000A1
:00000001FF